:02002000851841
:100000000000810919170310FE148200781C1218D1
:200024000217C00519180017E000000902171710800B151884098509860987098809890958
:080044008A090217CB0511180F
:0200220095182F
:20004C0000179C00700F3A007F17890012174206200C7518C20701101700751846184918A2
:20006C004C184F185218551858185B18751875185E186118641867186A186D1870187318D1
:20008C003117970075182F17970075182D17970075182C17970075182B17970075182A1708
:2000AC00970075182917970075182817970075182817970075182717970075181C179700BA
:2000CC0075181A1797007518171797007518151797007518131797007518111797002B1741
:2000EC009C003A007C1783005214431401140014001408140014B8140B140B1400013200A1
:20010C00C0073200A500041400128D189118C3070110C305450E3300C00533003B003A1710
:20012C0086008009C00004178400001785003800C307840BA2189E18C307C405261CF20FD2
:20014C00D20FC5070012AB18CD18C5070112AF18B418C5070212B31827193319B00040147F
:20016C000012B91885098009C3070314800903123319C0070012331907090808C707890B07
:20018C003319C8078A0B33190217C5053319B00040140012E018B00080140012E01887093C
:2001AC00880989098A0986090217CB050617C2052A1C3319B00040140012E518FF18B000B5
:2001CC0080140012FF18C9073C10C005CA071000CA05C007C9050217CB05C607CC058D0913
:2001EC001217CE058F09371D0110C2052A1C06093319B000401400121519B00080140012F8
:20020C0008191519C9074A0700120D1915190117C5050217CB050817C2052A1C3319B00009
:20022C00401400121A193319B000801400121F193319CB083319C0178D00261C37000000F7
:20024C003319B00040140012301987098809261C850933191117C2052A1CD20EF20E9E18DF
:02026C003A0056
:20026E00CD071B0000171D00D00500123F19451900174C06C0050017CD064819CC07C0059F
:20028E00CD07D205C007D105CF078011200C551900174E06C0050017CF065819CE07C005E0
:2002AE00CF07D805C007D705D107D505D207D605721DD305C007D405D007001267196E197D
:1602CE0000175306C0050017D406C0093A00D407C005D3073A003D
:2002E40099099A098009D8071B0000171D0000128A19D70A580BD5075706D607D806200DE4
:200304008619980A170B8A191A09DA07D9057419D907C005D5075706D607D806200C9619F0
:1C032400D7075504D807D604980A170BC007400900128C19D607C005D5073A008A
:00000001FF
